:100000000C94C0090C94DD090C94DD090C94ED30BE
:100010000C94DD090C94DD090C94DD090C94DD09C8
:100020000C94DD090C94DD090C942D2E0C94052FF5
:100030000C9499160C94DD090C94DD090C94DD09DF
:100040000C94DD090C94DD090C94DD090C94DD0998
:100050000C94DD090C94092E0C94DD090C94DD0937
:100060000C94DD090C94DD090C94DD090C94DD0978
:100070000C94DD090C94DD090C94DD090C94DD0968
:100080000C94DD090C94DD090C94DD090C94DD0958
:100090000C94DD090C94DD090C94DD090C94DD0948
:1000A0000C94DD090C94DD090C94DD0900AF00AE61
:1000B00005010902A10185020901A1000509190133
:1000C00029081500250195087501810205010930EF
:1000D00009311581257F950275088106093815813A
:1000E000257F950175088106050C0A3802158125C2
:1000F0007F950175088106C0C005010980A10185B1
:100100000319012AB700150126B700950175108162
:1001100000C0050C0901A101850419012AA00215DE
:100120000126A002950175108100C005010906A1F4
:10013000018506050719E029E715002501950875D1
:100140000181020507190029EF1500250195F075B9
:10015000018102050819012905950575019102958E
:100160000175039101C005010906A101050719E008
:1001700029E715002501950875018102950175088B
:1001800081010507190029FF150026FF0095067556
:100190000881000508190129051500250195057537
:1001A000019102950175039101C009023B00020112
:1001B00000A0FA0904000001030101000921110156
:1001C0000001224400070581030800010904010021
:1001D000010300000009211101000122B6000705FA
:1001E00082032000011201000200000008EDFEB0B1
:1001F0002323010102000128034C006F00740075E5
:10020000007300200035003800200047006C006FAC
:100210000077002000280051004D004B002900000D
:10022000002C0354007700650065007400790073AA
:10023000002000570069006C006400200054006832
:100240000069006E006B0069006E0067000000042A
:1002500003090443504C434B00556E646566005FD0
:100260005F335F5F0A005F5F325F5F200A005F5F9E
:10027000315F5F0A0000000000E0100808C8B0808D
:1002800080808080808040403C14040890180408DE
:10029000B040800000000000000102C4A4FC000087
:1002A00000008000000000000000000080C8582806
:1002B0002A100F000000000000000E0904040404CE
:1002C00002030201010202040810262B3204050673
:1002D0000000000000000000E01010F0000000002E
:1002E000000000008080807828081020300810204E
:1002F00040800000000000000304081011F9010113
:100300000101010100000000000000000110B050D8
:1003100055201F0000000000000000000000010246
:100320000C10202837021E2020180C141E0100007B
:1003300000000000000000000000804020109090AD
:1003400090A0C08080807008140890101008A478D5
:10035000800000000000000000000708FC01000011
:100360000000800000010000000000000818EA10F2
:100370000F0000000000000000000000031C20200F
:100380003C0F111F03061820203C0C121E01000018
:10039000000000000000000000000080402020203D
:1003A000408000000000E01028102020201048F0BD
:1003B000000000000000000000001F20F802010102
:1003C0000101010101030000000001001030D520EF
:1003D0001F00000000000000000000003F20300C63
:1003E000020509121E021C140810202C3201000004
:1003F00000000000000000000000000000000000FD
:10040000000000E01C02050224040402A91EE00012
:100410000000000000000000000000E0100868106C
:10042000080403000000000000000206827C0300B4
:1004300000000000000000000000000102040C1099
:1004400010202020283E1C20203E0F111F000000FD
:10045000000000000000000000000000000000009C
:10046000000000E01C02050224040402A91EE000B2
:1004700000000000000000000000E090081860107C
:1004800008040300000000000000020E827C03004C
:1004900000000000000000000000000102040C1039
:1004A00010202020283E1C20203E0F111F0000009D
:1004B00000000000000000000000008040404040BC
:1004C00080000000000000C04040800080408000AC
:1004D0000000000000000000001E21F004020202E3
:1004E000020302020404040301000009018080AB3E
:1004F00004F8000000000000000000031C20203C65
:100500000F111F02061820203808101804040202D8
:10051000010000000000000000000080404040801A
:1005200000000000000000E0A0204080C0204080CB
:100530000000000000000000003E41F00402020242
:1005400003020202040402010000000400404055BE
:10055000827C0000000000000000003F20300C0200
:100560000509121E04181008102028340602010183
:10057000000000000000C02010D03000000000008B
:1005800000008080403C14040890180408B04080AB
:100590000000000000000304081011F9010101012E
:1005A00001010000000000000080C848282A100F48
:1005B00000000000000000000000000001020C101C
:1005C0002028370202040810262B320405060000FA
:1005D000000000000000E01010F00000000000002B
:1005E0000000808040402C14040890180408B0409B
:1005F0008000000000000304081011F9010101014E
:100600000101000000000000000080C048282A10FE
:100610000F204A09100000000000000001020C1029
:100620002028370202040810262B32040506000099
:1006300000000000000000000000000000000000BA
:1006400000000000000000000000000000000000AA
:10065000000000000000000000000000000000009A
:10066000000000000000000000000000000000008A
:10067000000000000000000000000000000000007A
:10068000000000000000000000000000000000006A
:10069000000000000000000000000000000000005A
:1006A000000000008080000000000000000000004A
:1006B00000000000000000000000C0E0F83C9CCEFC
:1006C000E7F737337BFB7B3333F7E7CE9C3CF8E02F
:1006D000C000000000000000003CFFFF007EFFF3B0
:1006E000E3E33E0C0603060C3EE3E3F3FF7E00FF6C
:1006F000FF3C000000000000000083C79FBC39736E
:10070000E7EFCECEDEDEDECECEEFE77339BC9FC79D
:100710008300000000000000383E1F1F1F3FFFFE47
:10072000FE7E1E06010101061E7EFEFEFF3F1F1F0C
:100730001F3E382000000000000000000000000301
:1007400001000000000000000000010100000000A6
:100750000000000000000000000000000000000099
:100760000000000000000000000000000000000089
:100770000000000000000000000000000000000079
:100780000000000000000000000000000000000069
:100790000000000000000000000000000000000059
:1007A0000000000000000000000000000000000049
:1007B0000000000000000000000000000000000039
:1007C0000000000000000000000000000000000029
:1007D0000000000000000000000000000000000019
:1007E0000000000000000000000000000000000009
:1007F00000000000000000000000000000000000F9
:1008000000000000000000000000000000000000E8
:1008100000000000000000000000000000000000D8
:1008200000000000000000000000000000000000C8
:1008300000000000000000000000000000000000B8
:1008400000000000000000000000000000000000A8
:100850000000000000000000000000000000000098
:100860000000000000000000000000000000000088
:100870000000000000000000000000000000000078
:100880000000000000000000000000000000000068
:100890000000000000000000000000000000000058
:1008A0000000000000000000000000000000000048
:1008B0000000000000000000000000000000000038
:1008C000000000000000000080C0E0E0E0C0800008
:1008D0000000000000000000000000000000000018
:1008E0000000000080C0E0F0FFFFFFFFFFFFFFFF00
:1008F000FCFCF8700000000080C0C0C0C0C0E0F088
:10090000F8FCFEFFFFFFFFFF7F3F1F0F0703010300
:1009100003010100000000070F1F3F3FFFFFFFFF23
:10092000FFFFFF6F07030100000000000000000050
:1009300000000000000000000000000000010303B0
:1009400003010100000000000000000000000000A2
:100950000000000000000000000000000000000097
:100960000000000000000000000000000000000087
:100970000000000000000000000000000000000077
:100980000000000000000000000000000000000067
:100990000000000000000000000000000000000057
:1009A0000000000000000000000000000000000047
:1009B0000000000000000000000000000000000037
:1009C0000000000000000000000000000000000027
:1009D0000000000000000000000000000000000017
:1009E0000000000000000000000000000000000007
:1009F00000000000000000000000000000000000F7
:100A000000000000000000000000000000000000E6
:100A100000000000000000000000000000000000D6
:100A200000000000000000000000000000000000C6
:100A300000000000000000000000000000000000B6
:100A400000000000000000000000000000000000A6
:100A50000000000000000000000000000000000096
:100A60000000000000000000000000000000000086
:100A70000000000000000000000000000000000076
:100A80000000000000000000000000000000000066
:100A90000000000000000000000000000000000056
:100AA0000000000000000000000000000000000046
:100AB0000000000000000000000000000000000036
:100AC0000000000000000000000000000000000026
:100AD00000000000000000000000000000FCFCFE20
:100AE000FEFCFCF00000F0F8FCFEFEFCFC30000018
:100AF0000000000000000030FCFEFEFEFCF8F103E8
:100B0000C3F3FBF9F8F8F9FBF3C303F3F9FCFEFEBA
:100B1000FEFC78000000000000010303F3FBFDFE73
:100B2000FFFFFFFFFFFFFFFFFFFFFEFCF9F3C30323
:100B300001000000000000000000000001030303AA
:100B40000303010101010101030303030301000089
:100B50000000000000000000000000000000000095
:100B60000000000000000000000000000000000085
:100B70000000000000000000000000000000000075
:100B80000000000000000000000000000000000065
:100B90000000000000000000000000000000000055
:100BA0000000000000000000000000000000000045
:100BB0000000000000000000000000000000000035
:100BC0000000000000000000000000000000000025
:100BD0000000000000000000000000000000000015
:100BE0000000000000000000000000000000000005
:100BF00000000000000000000000000000000000F5
:100C000000000000000000000000000000000000E4
:100C100000000000000000000000000000000000D4
:100C200000000000000000000000000000000000C4
:100C30000000000000000000C0E0F0F8F8FC7EFEBC
:100C4000FEFFFF7F7FFFFFFFFFFEFEFEFCFCF8F0D4
:100C5000E0C0800000F0FEFFFFFFFFFFFFE00004A8
:100C600060040400003F3F1F0F07070F8FFFFFFFC7
:100C7000FFFFFFFEF00F7FFFFFFFFFFFFFFFFC0006
:100C800000E00000F0F0F00000C0E0008FFFFFFF88
:100C9000FFFFFF7F0F00000003070F1F1F3F7F7E36
:100CA0007EFFFEFEFFFFFFFFFF7F7E7E3F3F1F0FA9
:100CB000070301000007087F0807003E5B4F5B3E0B
:100CC000003E6B4F6B3E001C3E7C3E1C00183C7E81
:100CD0003C18001C577D571C001C5E7F5E1C0000EA
:100CE000183C180000FFE7C3E7FF000018241800B5
:100CF00000FFE7DBE7FF0030483A060E00262979BF
:100D0000292600407F05050700407F05253F005A42
:100D10003CE73C5A007F3E1C1C0800081C1C3E7F20
:100D20000014227F2214005F5F005F5F0006097FCE
:100D3000017F00006689956A0060606060600094D1
:100D4000A2FFA2940008047E04080010207E201058
:100D50000008082A1C0800081C2A0808001E101099
:100D60001010000C1E0C1E0C0030383E38300006EF
:100D70000E3E0E060000000000000000005F0000B4
:100D800000000700070000147F147F1400242A7F4E
:100D90002A120023130864620036495620500000CE
:100DA0000807030000001C224100000041221C0033
:100DB000002A1C7F1C2A0008083E080800008070DA
:100DC00030000008080808080000006060000020EB
:100DD00010080402003E5149453E0000427F400099
:100DE000007249494946002141494D330018141207
:100DF0007F10002745454539003C4A4949310041AB
:100E00002111090700364949493600464949291E3A
:100E1000000000140000000040340000000008142E
:100E2000224100141414141400004122140800027A
:100E300001590906003E415D594E007C1211127C99
:100E4000007F49494936003E41414122007F4141EE
:100E5000413E007F49494941007F09090901003E9F
:100E600041415173007F0808087F0000417F410025
:100E7000002040413F01007F08142241007F404094
:100E80004040007F021C027F007F0408107F003E6C
:100E90004141413E007F09090906003E4151215E62
:100EA000007F091929460026494949320003017F7C
:100EB0000103003F4040403F001F2040201F003FF3
:100EC0004038403F006314081463000304780403AF
:100ED000006159494D4300007F414141000204082F
:100EE000102000004141417F000402010204004043
:100EF0004040404000000307080000205454784060
:100F0000007F28444438003844444428003844448E
:100F1000287F0038545454180000087E0902001835
:100F2000A4A49C78007F080404780000447D40005D
:100F3000002040403D00007F102844000000417F19
:100F40004000007C04780478007C080404780038B1
:100F50004444443800FC182424180018242418FCA5
:100F6000007C080404080048545454240004043F3E
:100F70004424003C4040207C001C2040201C003CBD
:100F80004030403C004428102844004C9090907C15
:100F9000004464544C4400000836410000000077CF
:100FA0000000000041360800000201020402003C7B
:100FB0002623263C00000000000000404040F0F8DE
:100FC000F8FF38FFF8F83FF8F8FF38FFF8F8F0407E
:100FD000404000000000000080C0C0C0800000C091
:100FE000C08000000080C0C000C0C0000080C0C041
:100FF0000000000000C0C0C0C0C000C0C0000000B1
:1010000000000000000000000000000000000000E0
:1010100000000000000000000000000000000000D0
:1010200000000000000000000000000000000000C0
:1010300000000000C0F0F8FC3E1E06010000007F2A
:101040004141417F007F4141417F000080C0E07EFF
:101050005B4F5BFEC00000C000DCD7DEDEDED7DC0D
:1010600000C00000000000000000000000000000C0
:101070000000000000000000000000494949FFFF97
:10108000FFFFE0DFBFBF00BFBFDFE0FFFFFFFF49A3
:10109000494900000000001F3F6060E0BF1F007F63
:1010A0007F071E381E077F7F007F7F0E1F3B71600A
:1010B00000000000007F7F0C0C0C007E7E007F7E15
:1010C0000303007F7E03037E7E03037F7E000F3ECB
:1010D000703C063C703E0F00327B49493F7E007FEA
:1010E0007E0303001E3F69696F26000000000000B8
:1010F00000000000030F1F3F3C7870600000007F7D
:101100004141417F007F4141417F00307B7F78300A
:10111000202030787F3B0003000F7F0F0F0F7F0FE1
:1011200000030000000000000000000000000000BC
:101130000000000000000000000000010101070F96
:101140000F7F0F7F0F0F7E0F0F7F0F7F0F0F070196
:10115000010100000000000000000000010100008B
:10116000000000000000000000000000000000007F
:10117000000000000000000000000000000000006F
:10118000000000000000000000000000000000005F
:10119000000000000000000000000000000000004F
:1011A000000000000000000000000000000000003F
:1011B000000000000000000000000000000000002F
:1011C000000000000000000000000000000000001F
:1011D000000000000000000000000000000000000F
:1011E00000000000000000000000000000000000FF
:1011F000000000000000DA0281FFD9F1DB20A4A684
:101200002EAF00A0C0D30000A1C8D30000AED5808F
:10121000A81F408D142000167C1E001F00200021F6
:101220000022002B0014001A00080015001700E12E
:101230000004001600070009000A00E0001D001B62
:10124000000600190005000000E300E20000522C37
:10125000002F002E00270026002500240023002D4B
:1012600000130012000C0018001C00340033000FA3
:10127000000E000D000B004600380037003600104D
:1012800000110000006252E10400572A00300035CE
:10129000003A003B003C003D003E000100000052CF
:1012A00000000000003500E100500051004F000038
:1012B000000000E400000000003900000000000011
:1012C00000650001000100010000004400430042ED
:1012D00000410040003F004500000000004B004A74
:1012E0000049000000000000004E004D004C0000CE
:1012F000003100000000003000000000000100018B
:1013000000010028000000000000000000000000B4
:101310000000000000000000000000007C00000051
:1013200000000000000000000000000000000000BD
:1013300000000000000000000001000100010001A9
:10134000000000000000000000000000000000009D
:10135000000000000000000000000000000000008D
:10136000000000000000000000000000000000007D
:101370000000000000010001000100010000000069
:1013800011241FBECFEFDAE0DEBFCDBF11E0A0E039
:10139000B1E0E0E4F7E602C005900D92A43EB1078B
:1013A000D9F725E0A4EEB1E001C01D92A13EB2073D
:1013B000E1F70E947F280C944D330C9400009C01AF
:1013C000892F99270097E9F09C0188E0A90174E032
:1013D000569547957A95E1F74115510511F08C5FC7
:1013E0009A01A9015695479556954795411551057E
:1013F00011F08E5F9A0136952795232B09F08F5FA8
:10140000089580E0E3CF909399058093980508951F
:101410009093E0058093DF05089521E030E002C05D
:10142000220F331F8A95E2F78091DF059091E00546
:10143000822B932B0E94080A089521E030E002C01D
:10144000220F331F8A95E2F7209530958091DF05B2
:101450009091E005822393230E94080A08959A3010
:1014600098F5863088F5E82FF0E086E0989FE00D4B
:10147000F11D11248E2F877041E001C0440F8A9521
:10148000EAF783E0F695E7958A95E1F7EE0FFF1FFF
:10149000EE0FFF1FE05DFA4F20E030E070E0519169
:1014A000DF011197CB01022E02C0969587950A9411
:1014B000E2F7817081958527842385278C932F5FA0
:1014C0003F4F2430310559F708959A3078F586302A
:1014D00068F5E82FF0E086E0989FE00DF11D1124FB
:1014E0009E2F977083E0F695E7958A95E1F7EE0FCA
:1014F000FF1FEE0FFF1FE05DFA4F40E050E080E07D
:10150000219130E0092E02C0369527950A94E2F722
:1015100021703327042E01C0220F0A94EAF7822B90
:101520004F5F5F4F4430510559F7089580E00895AB
:10153000E091DF05F091E00521E030E0D90102C043
:10154000AA0FBB1F8A95E2F7CD01D90102C0AA0FED
:10155000BB1F6A95E2F78A2B9B2B02C0220F331F19
:101560004A95E2F7AF01482359238417950731F4D0
:10157000CF01822B932B0E94080A08952095309565
:10158000C9018E239F23F7CF80919F0590919E05DF
:10159000981301C008958F5F8770FACF90919A05D4
:1015A0008095892380939A05282F277021110DC0DB
:1015B000891759F090919C0592FF07C086958695F2
:1015C00086950E941D0A10929A05089581E00E9456
:1015D000CE0A08958091950590919D05892B509193
:1015E00096055523C1F090916D019923A9F0909132
:1015F0009B0597FF11C09DE120EF31E040E0F9012C
:1016000060812F5F3F4F61114F5F9150C0F74111D3
:1016100010929605852B089595E028EE31E0EECFE7
:10162000982F90958091950589238093950508952D
:101630007A30B8F46630A8F48330B0F4E62FF0E0E6
:1016400096E0799FE00DF11D11249CE3899FE00D48
:10165000F11D1124EE0FFF1FE95EFD4E859194915F
:10166000089580E090E0089581E0FCCF803E9105F0
:10167000D1F1C8F48133910509F47FC048F489326F
:10168000910509F46FC08A32910509F47DC008956F
:1016900089339105E1F082389105C9F085339105D0
:1016A00009F45BC00895843E9105D1F148F4823E6F
:1016B000910531F1833E910541F181EE90E008956D
:1016C000863E9105C1F1873E9105E1F10895209193
:1016D0009B052370211165C020919C0523FF14C038
:1016E00089E290E0089520919B0520FD43C0309150
:1016F0009C0530FF09C024FF4EC080E090E00895B3
:1017000020919B0522FDF7CF089520919B0522FD96
:1017100045C030919C0530FD44C024FFF5CFEDCF8E
:1017200020919C0521FFF0CF80919B0584FDE5CFA2
:1017300087EE90E0089520919B0523FFE5CF24FDDF
:10174000DCCFF6CF20919B0523FD2EC030919C0568
:1017500031FFE3CF84EE90E0089520919B0525FFB3
:10176000D3CFBECF20919B0525FD21C020919C05A4
:1017700023FFCACF89E390E0089520919B0526FFBF
:10178000C3CF8AE290E0089520919B0526FFBCCF4D
:1017900081E390E0089583EE90E0089582EE90E07A
:1017A000089580EE90E0089586EE90E0089585E338
:1017B00090E0AACF90919B0592FF10C041E0282FA6
:1017C0002471243009F040E031E0282F28712830BE
:1017D00009F030E0431711F02CE0822793FF10C08E
:1017E00041E0282F2471243109F040E031E0282F16
:1017F0002871283109F030E0431711F02CE08227DE
:1018000030919C0530FF10C051E0282F217121300C
:1018100009F050E041E0282F2871283009F040E01D
:10182000541711F029E0822731FF10C041E0282F22
:101830002171213109F040E031E0282F2871283151
:1018400009F030E0431711F029E0822794FD877EEC
:1018500008951F93CF93DF930E94360BEC018115FF
:1018600022E5920708F053C0811540E5940708F07F
:10187000DDC0803E9105F8F48D3C910508F0AEC0C6
:10188000883A910580F4853A910508F099C0813035
:10189000910521F00497813A910550F4CE01DF9132
:1018A000CF911F910895885A91094B9708F48BC0E6
:1018B000C0E0D0E0F3CF811550E49507F8F4C115EE
:1018C00080E2D80708F0CBC0C83ED10538F3CE017E
:1018D0009A9581159F4160F78D2F0E94DA0B182F82
:1018E000CE0199270E94360B212F30E0322F22277C
:1018F000E901CC27DF71C82BD92BD0CF99270E94C3
:10190000360BCC27DF70C82BD92BD06AC7CF8038D5
:1019100042E59407C8F5803652E5950708F067C0A0
:10192000C03482E5D807B0F08C2F869586958770F5
:1019300020E2829FC0011124C37021E030E0A901A0
:1019400002C0440F551FCA95E2F7EA01C82BD92BF4
:10195000DC68A4CFC03252E5D50708F041C08C2F17
:101960008695869520E2829FC0011124C37021E0F4
:1019700030E0A90102C0440F551FCA95E2F7EA0101
:10198000C82BD92BDD688ACF803C52E5950760F4DF
:101990008F71C03AD24508F03FC090E0982F882759
:1019A000EC01C46FD06A7ACF805C9245809708F0D2
:1019B0007FCFDC2FCC27CC27DF71C06FD06A6ECFF2
:1019C000A497D0646BCFC85AD0E0CC0FDD1FC255AE
:1019D000DE4F0990D881C02DD46460CFD0655ECF32
:1019E000CF71D0E0DC2FCC27C16FD06A57CF86955E
:1019F0008695877020E2829FC0011124C37021E088
:101A000030E0A90102C0440F551FCA95E2F7EA0170
:101A1000C82BD92BDA6842CF0E94DA0BC82FD0E04E
:101A2000DC2FCC27CC27DF71D06238CF8F710E949A
:101A3000DA0B65E0D695C7956A95E1F7CF70D0E0EF
:101A4000DC2FCC27282F30E084FF05C054E0220F84
:101A5000331F5A95E1F7C22BD32BD0691FCF8D2F9F
:101A60008F710E94DA0B182FCE0199270E94360B36
:101A7000212F30E0322F222722273F71282B392BAC
:101A8000E901D2CFA0E0B0E0E8E4FDE00C9425321B
:101A90008C01E090DF05F090E00580919805909131
:101AA0009905E82AF92ACFE0D0E0CC24C394D12CC0
:101AB000C6010C2E02C0880F991F0A94E2F78E21EE
:101AC0009F21892B49F4219798F7B12C8B2DCDB705
:101AD000DEB7E9E00C944132BC2EB8018C2F0E9495
:101AE000180B0E94290C019771F3F0CF0F931F93ED
:101AF000CF93FC01858100811181882391F06623B9
:101B000081F0C8010E94420DC82F682FC8010E94B1
:101B10002F0AB8018C2F0E94180BCF911F910F91A3
:101B20000895C8010E94650AC82FF3CFCF93DF93B1
:101B3000D82FC92F0E94420D6D2F7C2F0E94180BA9
:101B40000E94290CDF91CF910895FC0184818823A4
:101B5000A1F0808191810E94960D282F92959F700F
:101B6000963091F060F4925F9F70923030F481E093
:101B7000203F79F030F4283E30F080E004C09A5FD6
:101B8000F3CF243FD1F7089581E0283E18F0213F9C
:101B9000F9CF0895089580E00895F894E82FE2952C
:101BA000EF70F0E041A18F7021E030E0B90102C098
:101BB000660F771F8A95E2F7CB01962F90959423B5
:101BC00091A392A1892B82A37894089520917E04F9
:101BD00036E0839FC0011124269F800D911D1124A2
:101BE000811522E0920714F080E090E084599D4F27
:101BF00090936B0280936A020895CF93DF93B82F7E
:101C0000A92F9B0180916A0290916B028C569240A1
:101C1000AC01460F571F4130524020F020E032E027
:101C2000281B390B4091680250916902EB2FFA2F63
:101C3000280F391FC1E0D0E08217930738F0509386
:101C4000690240936802DF91CF9108956491DC01AD
:101C5000A459BD4F7C91761779F06C93BC01A5E037
:101C600076956795AA95E1F7DE0102C0AA0FBB1F22
:101C70006A95E2F74A2B5B2B01963196DDCFFC018A
:101C8000680F791F8FEF91E3E617F70709F40895BE
:101C90002191822728E030E087FF08C0880F89273C
:101CA0002150310921153105B9F7EECF880FF8CF52
:101CB000282F35EB2303C001112497FF04C080585F
:101CC0009109892F089580589F4FFBCF809152052D
:101CD00080FD14C081FD14C082FD16C080915105A5
:101CE000882381F08E3180F420E5829FC001112489
:101CF0006EE170E00E945F32862F089584E10895BE
:101D000088E2089588E0089580E50895809152055D
:101D100080FD17C081FD17C082FD19C0809150055C
:101D2000882399F0883298F428E0829FC00111241A
:101D300068E270E00E945F326115710551F0862FF4
:101D4000089562E0FCCF64E0FACF61E0F8CF68E08C
:101D5000F6CF81E00895FA01309709F009950895CA
:101D60008091FA04811103C0809138020895E091B6
:101D70002605F0912705309729F00190F081E02D9C
:101D80000995089580E00895A3E0B0E0EAECFEE054
:101D90000C942C329C01809136029091370282176C
:101DA0009307A1F03093370220933602E091260585
:101DB000F0912705309751F083E089833B832A8394
:101DC0000084F185E02DCE01019609952396E2E08D
:101DD0000C944832A3E0B0E0E0EFFEE00C942C322B
:101DE0009C01809134029091350282179307A1F0F3
:101DF0003093350220933402E0912605F0912705B7
:101E0000309751F084E089833B832A830084F185F5
:101E1000E02DCE01019609952396E2E00C9448321C
:101E200090916D019923C1F090919B0597FF14C08B
:101E3000E82FE695E695E695803FF8F4F0E0E2516C
:101E4000FE4F877021E030E001C0220F8A95EAF74B
:101E50008281822B82830895A8EEB1E0EFEF90E0BB
:101E60002D91821751F0EF3F19F4211101C0E92F94
:101E70009F5F9630A9F7EF3F09F408950E2E000CEE
:101E8000FF0BEA51FE4FE6CF90916D019923E1F0EF
:101E900090919B0597FF18C0E82FE695E695E6958B
:101EA000803FF0F4F0E0E251FE4F877021E030E037
:101EB000A90102C0440F551F8A95E2F7CA01809517
:101EC0009281892382830895E8EEF1E0919189134C
:101ED00003C0DF0111971C9251E0EE3EF507B1F708
:101EE0000895A4E0B0E0E7E7FFE00C942C328FB750
:101EF000F894209130023091310240913202509199
:101F0000330229833A834B835C838FBF69817A8153
:101F10008B819C812496E2E00C944832A4E0B0E0EE
:101F2000E4E9FFE00C942C328091FA04882371F0EC
:101F30000E94710F69837A838B839C8369817A8184
:101F40008B819C812496E2E00C9448320E94710FB0
:101F500069837A838B839C838091FC049091FD0438
:101F6000A091FE04B091FF0429813A814B815C81EC
:101F7000280F391F4A1F5B1F29833A834B835C83D9
:101F8000DDCF0E948E0F609302057093030580934E
:101F90000405909305050895A4E0B0E0E2EDFFE0AC
:101FA0000C942A32462F572FBC012FB7F8948091FA
:101FB000300290913102A0913202B09133022FBFD2
:101FC0008C019D01041B150B260B370BC901B801B1
:101FD0002496E4E00C94463287E797E79093010853
:101FE0008093000888E19AE00FB6F894A895809352
:101FF00060000FBE90936000FFCF80912F02089584
:10200000FC019B018091250290912602861797077B
:1020100040F0672B29F48091E8008E778093E800E8
:10202000C90140E0009741F4411106C08091E800E9
:1020300082FF2FC080E00895209182042223A9F11D
:102040002530A9F12091E80023FD2DC02091E80062
:1020500022FDECCF2091E80020FFE4CF3091F30087
:102060002091F200009719F02830310558F041E036
:102070002830310509F040E02091E8002E772093C8
:10208000E800D0CF41914093F10001972F5F3F4F7F
:10209000E9CF80918204882341F0853041F080911E
:1020A000E80083FFC3CF81E0089582E0089583E0D4
:1020B000089580911F0287FF13C08091E80082FF7E
:1020C00006C08091E8008B778093E80004C080917F
:1020D00082048111F2CF0895809182048823D9F37C
:1020E0008091E80080FFF8CF8091E8008E77ECCFF8
:1020F0002091E4003091E50095E6A9018091EC0083
:102100008170882331F08091E80080FF06C080E074
:1021100008952091E80022FD1BC08091820488234D
:1021200091F0853091F08091EB0085FD10C02091F9
:10213000E4003091E5004217530701F391509111EB
:10214000DCCF84E0089582E0089583E0089581E083
:102150000895E8EDF0E080818E7F80831092E200A8
:102160001092DA001092E100A0EEB0E08C91816054
:102170008C9380818F77808319BCA7EDB0E08C9120
:102180008E7F8C9380818F7E808310921E020895B3
:1021900090919C0592FF07C098E0899F90011124BF
:1021A000236020939A050E940D0A0895FC01828104
:1021B000813031F40E940D0A81E00E94C810089518
:1021C000823041F48091DF059091E005F2E08F27A5
:1021D0000E94080A0895982FE42FE2709093E90076
:1021E000891308C0762F242F50E0E11111C091E02F
:1021F000980FF4CF7091EC002091ED005091F00019
:1022000021FD06C09F5F973049F78093E90008954C
:102210003091EB003E7F3093EB003091ED003D7F3D
:102220003093ED003091EB0031603093EB00709310
:10223000EC002093ED005093F0002091EE0027FD7C
:10224000E1CF0895A0E0B0E0E8E2F1E10C9426329D
:10225000C8EDD0E088818F7E8883E7EDF0E0808153
:102260008160808384E082BF81E080931E02888148
:102270008E7F888302EE10E0F80110821092DA005F
:1022800081EEC82ED12CF601108288818F77888349
:1022900088818068888388818F7D888319BC1092AB
:1022A000820410921D021092810410921C0290EE82
:1022B000E92EF12CF70180818B7F808388818160FA
:1022C000888342E060E080E00E94EB10F6018081AC
:1022D0008E7F8083F8018081816080838081886027
:1022E0008083F70180818E7F8083888180618883ED
:1022F000CDB7DEB7E8E00C944232E0919F059091B3
:102300009E0527E0E91302C080E00895AE2FB0E0FB
:102310002E9FF0011124E056FA4F3181361306C08A
:102320003081381303C03581341304C0FD01319668
:10233000E770E8CF81E008950F931F93CF93DF9369
:10234000EB018A0190918204943079F58093E90041
:102350008FEF9091E80095FD07C095ED9A95F1F704
:10236000000081508111F5CF8091E80085FF1DC0EC
:102370000E947810811114C08091E80085FD06C08C
:102380008091E8008E778093E800F2CF8881809377
:10239000F100015011090115110511F02196ECCF42
:1023A0008091E8008E778093E800DF91CF911F91B4
:1023B0000F910895CF93DF93D82FC92F48E050E0B5
:1023C000682F792F81E00E949C1188E0ED2FFC2F6F
:1023D000A7E2B2E001900D928A95E1F7DF91CF91EB
:1023E0000895BC0140E250E082E00E949C110895F3
:1023F000BC0146E050E082E00E949C110895BC01BF
:1024000043E050E082E00E949C110895A0E0B0E01B
:10241000ECE0F2E10C942432F82EE92EB62EA72E31
:102420008A0180911A02CC24C394D12C8A3018F4EA
:102430008AE0C82ED12CC1E0D0E06B2D7A2D8F2DF3
:102440009E2DF8010995811116C02196CC16DD0646
:1024500094F0CC9FC001CD9F900D900D112420E0F1
:1024600030E045E34A95F1F700002F5F3F4F281712
:102470003907B9F7E2CFCDB7DEB7EAE00C944032C6
:1024800090919C0592FB222720F9281779F080FB78
:1024900092F990939C0560919B0570919C0584E056
:1024A00090E00E94373382E00E94CE0A0895ECE665
:1024B000F2E080E092E0DF019C011D92215030406B
:1024C000E1F7F0936B02E0936A028FEF9FEF909336
:1024D000690280936802089580916D01882359F103
:1024E00080919B0587FF27C00E94EA0A8093EF0135
:1024F00040E250E066E075E08EEE91E00E94E53249
:10250000892BC1F080E2EEEEF1E0A6E0B5E00190AB
:102510000D928A95E1F7E0912605F0912705309715
:1025200049F086E08093EE010480F581E02D8EEE87
:1025300091E0099508950E94EA0A8093E60148E037
:1025400050E068E275E086EE91E00E94E532892B6A
:1025500089F388E0E6EEF1E0A8E2B5E001900D92A3
:102560008A95E1F7E0912605F0912705309711F360
:102570000280F381E02D86EE91E0DBCF882339F0F5
:1025800090919505892B809395050E946C12089572
:10259000882321F00E94100B0E946C120895CF93A3
:1025A000DF93EC014A855B856E857F850E94AB0ECB
:1025B0009B81909580919D05892380939D058C81B9
:1025C0000E94100B0E946C1286E0FE0111928A9507
:1025D000E9F7DF91CF910895CF93DF93EC018D81DF
:1025E00081FD17C082608D8380919D059B81892B21
:1025F00080939D05809195059C81892B80939505FD
:102600000E946C12488559856E857F85CE010E9497
:10261000AB0E1092900510928F058D8180FD03C046
:10262000CE010E94CF12DF91CF910895A0E0B0E0DB
:10263000ECE1F3E10C942632FA0169017801C82F2C
:10264000880FDD0B3097B1F0DE0193E0AA0FBB1FBE
:102650009A95E1F7AB5EBE4F11968D919C911297C2
:1026600080529B4F4C9150E0E417F50708F4AF01FE
:102670000E94F232CE010E949331182F8823D1F0AC
:10268000E114F104B9F083E0CC0FDD1F8A95E1F786
:10269000FE01EB5EFE4F438150E0E416F50608F4C0
:1026A000A701CB5EDE4F6C817D8160527B4FC601FE
:1026B0000E94F232812FCDB7DEB7E8E00C944232AF
:1026C000A5E0B0E0E6E6F3E10C942032762E6A0154
:1026D0004901580101E010E09E012F5F3F4F40E0AB
:1026E00050E060E070E00E941613182F8823B9F1C3
:1026F000D6018D919D910D90BC91A02DBC01CD0175
:102700000E94CC0F6980643671058105910530F413
:10271000B701C5010E943F0E861509F1870194019A
:1027200040E050E060E070E0872D0E941613182F03
:10273000B701C5010E943F0E861531F010E0812FD0
:102740002596EEE00C943C3211701123C1F30E94E7
:10275000710FF6016083718382839383F0CFA701A9
:10276000B501C4010E94F232EACFA5E0B0E0EBEB84
:10277000F3E10C9426326B0185E0E82EF12C01EE9A
:1027800014E09E012F5F3F4F4CED54E061E080E08C
:102790000E946013882349F095E0FE013196A7ED71
:1027A000B4E001900D929A95E1F795E0E7EDF4E041
:1027B000D60101900D929A95E1F72596E8E00C94E8
:1027C0004232AAE0B0E0E7EEF3E10C942432F82EB6
:1027D0006D837E83A42ED22EE32EB02EC12EAD812A
:1027E000BE818D919D910D90BC91A02DBC01CD011C
:1027F0000E94CC0F643671058105910510F4AA2062
:10280000A9F000E010E020E030E04B2D5C2D6D2DB4
:102810007E2D8F2D0E941613882349F00E94710F80
:10282000ED81FE81608371838283938381E02A96A8
:10283000EAE00C944032A1E0B0E0E1E2F4E10C9473
:102840002A320E94B00E898341E09091F5049813DA
:1028500001C040E001E010E09E012F5F3F4F6BEBB5
:1028600074E088E00E94E1132196E4E00C94463283
:102870000F931F93CF93DF93D82FC92F45E050E0DC
:1028800066EE74E00E94E53241E0892B09F440E0F5
:1028900005E010E02D2F3C2F63ED74E082E00E94F4
:1028A000E113DF91CF911F910F9108950F931F9323
:1028B00041E02091F1043091F2048091DF05909184
:1028C000E0052817390709F440E002E010E02FED99
:1028D00035E063EC74E086E00E94E1138823B1F0F8
:1028E00041E02091F3043091F40480919805909197
:1028F00099052817390709F440E002E010E028E9BB
:1029000035E06FEB74E087E00E94E1131F910F91B7
:102910000895A1E0B0E0EFE8F4E10C942A32809150
:10292000B20489832091F90430E090E041E0281757
:10293000390709F440E001E010E09E012F5F3F4FAE
:1029400063EB74E08AE00E94E1132196E4E00C94CA
:102950004632A8E0B0E0EFEAF4E10C942A3280912C
:10296000C7049091C804A091C904B091CA04BC01E5
:10297000CD010E94CC0F11E06436710581059105EF
:1029800020F10E948E0FDC01CB010296A11DB11D2A
:1029900089839A83AB83BC8300E010E020E030E0C1
:1029A00044E050E0BE016F5F7F4F85E00E94161348
:1029B000182F882351F00E94710F6093C704709301
:1029C000C8048093C9049093CA04812F2896E4E038
:1029D0000C944632A7E0B0E0E0EFF4E10C942A3228
:1029E0004091B7045091B8046091B9047091BA0451
:1029F000CB01BA010E94CC0F6C837D838E839F83B1
:102A000020919505298390919D05809196054C8193
:102A10005D816E817F814436510561057105D8F075
:102A20009A838B8300E010E020E030E043E050E048
:102A3000BE016F5F7F4F89E00E9416138823D1F09B
:102A40000E94710F6093B7047093B8048093B90427
:102A50009093BA040EC03091F6043213E1CF9A83FA
:102A60002091F7042913DDCF8B839091F80489130B
:102A7000D9CF81E02796E4E00C944632A0E0B0E0A4
:102A8000E4E4F5E10C9426327C016B0164E670E02D
:102A900088E70E94542FEC0197FD12C000E010E07F
:102AA000F701E00FF11F849164E670E00E94C32FEC
:102AB000EC010F5F1F4FC016D10611F097FFF0CF4A
:102AC0000E94453081E0CD2B09F080E0CDB7DEB724
:102AD000E8E00C94423280917904882369F0809177
:102AE000B204882349F062E070E08EEA90E00E9430
:102AF0003E1581111092B2040895A4E0B0E0E3E81D
:102B0000F5E10C942C32809179048823F9F00E942D
:102B1000710FDC01CB0180589645AC4FBF4F8093BD
:102B20007A0490937B04A0937C04B0937D048091FD
:102B3000B20481110BC062E070E08CEA90E00E9468
:102B40003E15882319F081E08093B2042496E2E0D8
:102B50000C9448321F93CF93DF93982F162F81E068
:102B60009A3019F09D3039F480E00E943B16DF91D5
:102B7000CF911F910895C0916A02D0916B0286E0B7
:102B8000FE01A2E6B2E001900D928A95E1F7903E37
:102B900090F186E0FE0111928A95E9F7C0916A02F0
:102BA000D0916B02111133C046E050E0BE0182E6C5
:102BB00092E00E94E5329E012C563240892B91F51D
:102BC0002A5F3F4F40917E04642F70E0C9010E944C
:102BD0000832481B463010F4240F311D211572E0D5
:102BE000370710F020E030E024593D4F30936B025E
:102BF00020936A02BCCFF6E09F9FB00111246B5472
:102C0000734F46E050E0CE010E94DC32C7CF9E01F8
:102C10002A5F3F4FFE012E173F0731F280818095DA
:102C20008193F9CFC90145E0969587954A95E1F7DB
:102C300041E050E0BA0102C0660F771F8A95E2F7C3
:102C4000CB016091680270916902862B972BB901C4
:102C50006B5F7F4FE5E076956795EA95E1F702C0F7
:102C6000440F551F6A95E2F7842B952B90936902C8
:102C700080936802A5CFCF93382FE0916A02F0913C
:102C80006B02EC56F24020917E04622F70E0CF017F
:102C90000E940832281B822F332369F066E00E94CD
:102CA0005332C82FC15010F4CF91089560E080E2F4
:102CB0000E94AA15F7CF9F01280F311D2115324020
:102CC00018F080E0E0E0F0E08E0F9F2F911D845916
:102CD0009D4F90936B0280936A02E6CF1F93CF9330
:102CE000DF93EC01162FFE018491811104C0DF9166
:102CF000CF911F910895612F0E94AA152196F3CFBD
:102D00000F931F93CF93DF93EC01FC010190002000
:102D1000E9F78F0101501109C017D10728F0DF91A1
:102D2000CF911F910F91089560E089910E94AA159B
:102D3000F3CF1F921FB61F9211248F939F93AF93CF
:102D4000BF9380918004811113C0809130029091D3
:102D50003102A0913202B09133024196A11DB11D02
:102D60008093300290933102A0933202B0933302E9
:102D7000BF91AF919F918F911F901FBE1F9018958B
:102D80002FB7F8948091300290913102A0913202D5
:102D9000B09133022FBF08950E94C01620915505AF
:102DA00030915605232B222321F08093AB0490937E
:102DB000AC042091570530915805232B222321F094
:102DC0008093A9049093AA04E0912605F091270529
:102DD000309749F082E0809353050680F781E02D1B
:102DE00083E595E009950895209155059091580542
:102DF00030915705662309F45AC040915605242B9B
:102E0000292B232B222331F098E09093510591E058
:102E1000909350058D3C41F40E94660E81958093FD
:102E200056050E94CC160895E2E3E80FE231C8F798
:102E3000F0E0E15BFC4C0C94B4320E94660EEFCFE4
:102E40000E94660E819580935505EBCF0E94660E19
:102E5000FACF0E94860E80935705E3CF0E94860E1C
:102E60008195F9CF0E94860E819580935805D9CF20
:102E70000E94860EFACF815D990B21E030E001C0FF
:102E8000220F8A95EAF780915405822B809354058E
:102E9000C8CF80915205816080935205C2CF809146
:102EA00052058260F9CF809152058460F5CF8D3C48
:102EB00059F48091560587FF0DC0109256052223C4
:102EC00059F41092510508C08E3C81F4809156054A
:102ED00018169CF3222381F0809157059091580594
:102EE000892B81119ECF109250059BCF8F3C41F4CE
:102EF00027FFF0CF10925505809156058823E0CF2B
:102F0000803D19F41216B4F3E5CF893D29F4131668
:102F10000CF710925705DECF8A3D19F437FFDACF50
:102F2000F8CF8B3D29F497FFD5CF10925805D2CF1B
:102F30008C3D19F41916CCF3CDCF9FE2980F983041
:102F400090F4815D990B41E050E0BA0102C0660F38
:102F5000771F8A95E2F7CB018095909154058923DC
:102F600080935405B7CF8D3D31F4809152058E7F0B
:102F700080935205AFCF8E3D21F4809152058D7F15
:102F8000F7CF8F3D09F0A6CF809152058B7FF0CF10
:102F9000CF93C82F8823B1F18CEF8C0F813AA0F525
:102FA00080916D01882301F180919B0587FF1CC0F2
:102FB000EC2FE695E695E695F0E0E251FE4F828132
:102FC00090E04C2F477021E030E002C0220F331F09
:102FD0004A95E2F782239323892B79F08C2F0E9464
:102FE000440F0E946C1209C0E8EEF1E08191C8170D
:102FF000A9F321E0EE3EF207C9F78C2F0E94100FD3
:103000000E946C12CF91089580E28C0F883068F492
:10301000C77081E090E001C0880FCA95EAF7C091BF
:103020009505C82BC0939505EBCF8BE58C0F8330AE
:1030300038F42C2F2452330BC9010E94C40EE2CF66
:10304000E8E5EC0FEB3150F4F0E0EE0FFF1FE25536
:10305000FE4F808191810E94EA0ED4CF83E38C0FD2
:10306000833180F661E08C2F0E94F416CBCF882349
:1030700081F19CEF980F913A28F40E94440F0E942E
:103080006C12089590E2980F983050F4877091E098
:1030900001C0990F8A95EAF7892F0E94100BEFCF94
:1030A0009BE5980F933028F480E090E00E94C40ED6
:1030B000089598E5980F9B3128F480E090E00E94F5
:1030C000EA0E089593E3980F933118F460E00E949C
:1030D000F41608951F93CF93DF93182FEB010E94EE
:1030E000C817209739F4812F0E943718DF91CF91AC
:1030F0001F9108958FE99FE00197F1F700C000004C
:103100002197EFCF6AE070E0882321F089EA0E94DE
:103110006A1808958AEAFBCFA1E0B0E0E2E9F8E19D
:103120000C942632EE24E394F12C0CEE14E09E0174
:103130002F5F3F4F4FEC54E064E083E00E94601348
:10314000E82E882321F1D12C80E01AC00091CE0412
:103150000D0D10E004531B4FE1E0F0E0EC0FFD1FFC
:10316000ED0DF11DF080F8019081F91ACF2C1C149F
:103170009CF09F2DF7FC90E0F91AF11017C0D39442
:103180009091CB04D91610F381110E94C10F8E2D9E
:103190002196E8E00C944232CA94F80180818F5F56
:1031A000808380E00E9482188E2DE1CFF394F80195
:1031B00080818150808381E00E9482188E2DDDCF36
:1031C0001092950580916D01882339F180919B05BE
:1031D00087FF23C0E0EFF1E08EE1DF011D928A95C9
:1031E000E9F780E090E00E94C40E80E090E00E9449
:1031F000EA0E10929D050E946C1286E0E3E5F5E070
:10320000DF011D928A95E9F7109251051092500541
:10321000109252050E94CC160895E8EEF1E086E087
:10322000DCCF0E94E0182FEF84E39CE02150804027
:103230009040E1F700C0000088E19AE00FB6F894F2
:10324000A895809360000FBE90936000FFCFAAE224
:10325000B0E0EDE2F9E10C942B328FE192E0FC0159
:1032600001962091F100208322E087329207B9F77E
:1032700080912002893009F456C0C8F4823009F4E4
:10328000B2C0833009F481C0813071F18091E800CF
:1032900083FFE6C080911F02909120029A3008F0CF
:1032A000DFC0E92FF0E0EF59FC4C0C94B4328A30C7
:1032B00009F488C08B3051F780911F02813231F7B9
:1032C0008091230290912402892B01F78091E800DC
:1032D000877F8093E8000E9459108091210280939B
:1032E0006D010E94E018D2CF80911F02813A71F6E1
:1032F0008091E800877F8093E8008091230290917D
:103300002402892B61F060E080E090E070E00E9490
:1033100000108091E8008B778093E800B7CF68E0D9
:1033200087E292E0F3CF80911F02813209F0AECFA5
:103330008091230290912402029708F0A7CF8091F8
:10334000E800877F8093E8008091E80082FF18C042
:103350009091F3008091F200029731F48091F10096
:10336000813011F0863021F48091F10080932F029A
:103370008091E8008B778093E8000E94591086CFF7
:10338000809182048111E0CF81CF80911F02813A28
:1033900009F07CCF8091230290912402892B09F0BF
:1033A00075CF8091E800877F8093E8008091E800E6
:1033B00080FFFCCF80916D018093F1008091E80047
:1033C0008E77D9CF80911F02813209F05FCF809133
:1033D000E800877F8093E8000E94591080912202C4
:1033E00080931B0253CF80911F02813A09F04ECF88
:1033F0008091E800877F8093E8008091E80080FF5B
:10340000FCCF80911B02D8CF803889F0823841F5FB
:10341000809123028F70873018F58093E9008091A6
:10342000EB0085FB882780F91092E90006C08091A7
:103430001C0290918104911182609091E800977F25
:103440009093E8008093F1001092F1008091E800E1
:103450008E7723C0811116C080912102813011F135
:103460008091E80083FF0AC08091E800877F809305
:10347000E8008091EB0080628093EB00AA96E3E085
:103480000C944732823061F780912102882389F0C1
:103490001092E9008091E800877F8093E8000E9405
:1034A0005910DECF81E0933009F080E080938104F1
:1034B000EFCF809123028F702FEF280F263080F6F8
:1034C0008093E9002091EB0020FFE2CF933031F4AC
:1034D0008091EB0080628093EB00DACF9091EB005B
:1034E00090619093EB0021E030E0A90102C0440F0D
:1034F000551F8A95E2F74093EA001092EA00809106
:10350000EB008860E8CF8111ABCF109121021F77CB
:103510008091E3008078812B8093E3008091E80024
:10352000877F8093E8000E9459108091E80080FF17
:10353000FCCF8091E30080688093E30083E0111169
:1035400001C082E0809382048BCF8058823008F0E3
:1035500087CF40912102509122024C3D83E05807D1
:1035600099F583E08A838AE289834FB7F894DE0174
:10357000139620E03EE051E2E32FF0E05093570035
:10358000849120FF03C082958F703F5F8F708A30D7
:10359000C8F0895C90E08D939D932F5F243161F793
:1035A0004FBF8091E800877F8093E8006AE270E077
:1035B000CE0101960E9400108091E8008B778093E5
:1035C000E8004ECF805DE6CF2091230230912402A7
:1035D000852F99278330910509F160F48130910599
:1035E00009F472C0029709F03BCF8BE390E0EAEA5E
:1035F000F1E029C08132910509F45AC0829709F09F
:103600002FCF2115310509F469C02130310509F0AA
:1036100027CF86EB90E0E0EBF0E015C0CA019927D8
:103620004130B1F18230910509F43AC0892B09F09B
:1036300017CFEFE4F2E0E4918E2F90E0EFE4F2E0B8
:10364000009709F40DCF2091E800277F2093E80030
:1036500020912502309126028217930708F49C01DD
:1036600040E02115310509F03EC041113CC0809178
:10367000E80082FDA1CF80918204882309F49CCFC9
:10368000853009F499CF8091E80083FFF0CF94CF83
:10369000E1E2F2E0E4918E2F90E0E1E2F2E0D0CFBF
:1036A000E7EFF1E0E4918E2F90E0E7EFF1E0C8CF93
:1036B0002115310571F02130310509F0D1CE89E0B5
:1036C00090E0E5EDF1E0BFCF82E190E0E5EEF1E0E2
:1036D000BACF89E090E0ECEBF1E0B5CF84E490E084
:1036E000E6E6F1E0B0CF80918204882309F464CF4C
:1036F000853009F461CF8091E80083FD5DCF809132
:10370000E80082FDB4CF8091E80080FFAACF9091BD
:10371000F3008091F2002115310519F088309105F0
:1037200050F041E0089709F040E08091E8008E7782
:103730008093E80096CF44914093F1003196215058
:1037400031090196E8CF803809F08ACE8091E800EF
:10375000877F8093E80080911D028093F10076CEF0
:1037600081117ECE10912102123008F079CE809125
:10377000E800877F8093E80010931D020E94591093
:10378000112381F084E08093820442E061EC81E0C7
:103790000E94EB1042E261EC82E00E94EB1080910B
:1037A00082045ECE8091E30087FDECCF81E0EBCF19
:1037B0009C014FB7F8948091300290913102A09112
:1037C0003202B09133024FBF821B930B0895ACE0DD
:1037D000B0E0EDEEFBE10C941D328091790488237A
:1037E00009F4E3C080916002909161020E94D81BAD
:1037F000C29708F49CC00E94C01690936102809307
:10380000600260E080E00E94E60D10919A04812F32
:1038100090E090933F0280933E028091FA0460E032
:10382000882309F461C180E00E94E60D60E870E041
:1038300085E39CE00E94FD0D65E081E00E94E60DBD
:103840001C822AE0812F622F0E945332905D9B835D
:103850000E945332905D9A83805D8983CE010196E8
:103860000E94801666E081E00E94E60D8FE791E0FD
:103870000E94801667E080E00E94E60D83E891E0F8
:103880000E9480168091DF059091E0050E94DF097B
:1038900060E0813009F48DC0823009F48DC081115F
:1038A0008EC08EE692E00E946E160E94B00E81FBE2
:1038B000662760F983E592E00E946E1681E00E941F
:1038C0003B1620910205309103054091040550916B
:1038D00005052D833E834F8358878091FA04882302
:1038E00009F470C0CA01B9010E94CC0F462F572FAE
:1038F000BC014138594A6340710508F474C02091F5
:10390000AD043091AE044091AF045091B004CA01AF
:10391000B9010E94CC0F6D837E838F8398876138B5
:10392000794A8340910508F45EC00E946B1580912E
:10393000680290916902892BA9F08091790488230B
:1039400089F08091780481110DC00E947D1520912D
:1039500068023091690280E061E070E02115310574
:1039600009F0EAC08091B2048823F9F00E94710F37
:103970006D837E838F83988780917A0490917B04F6
:10398000A0917C04B0917D042D813E814F815885AA
:10399000281B390B4A0B5B0BDA01C9018F3F9F4F84
:1039A000AF4FBF4710F40E946B152C96E1E10C94C9
:1039B000393286E692E077CF8FE592E074CF89E5E1
:1039C00092E071CF0E948E0F69877A878B879C87E0
:1039D000AB01BC018D819E81AF81B885481B590B1D
:1039E0006A0B7B0B86CF0E947D1580913A029091E5
:1039F0003B02A0913C02B0913D02BC01CD010E946E
:103A0000CC0F6D837E838F839887693C7105810518
:103A1000910508F48CCF0E94710F60933A02709365
:103A20003B0280933C0290933D0280918C05811172
:103A300004C080916E01811128C06FE080E00E9477
:103A4000E60D83E891E00E9480166CE080E00E9421
:103A5000E60D81E080936E018091390290E001963D
:103A600081709927809339020E94B00E909139029B
:103A700081FF18C0A0E69A9FC001112460E670E0A3
:103A80008B589A4F0E94FD0D52CF6CE080E00E944F
:103A9000E60D83E891E00E9480166DE080E00E94D0
:103AA000E60DDACFB0E69B9FC001112420918E0570
:103AB000222329F060E670E08B549B4FE3CF2091E6
:103AC0003E0230913F0260E670E02B3031051CF47D
:103AD0008B509C4FD7CF293231051CF48B5C9C4F07
:103AE000D1CF8B589D4FCECF80E00E94E60D8091C4
:103AF000DF059091E0050E94DF09813059F08230A6
:103B000081F0811115C00E94571260E072E085E3D8
:103B10009AE0B8CF0E94571260E072E085E398E027
:103B2000B1CF0E94571260E072E085E396E0AACF21
:103B30000E945712FCCE8F5F082F10E07B01082EE9
:103B400002C0EE0CFF1C0A94E2F7A70142235323A4
:103B5000452B89F390917F0490FD43C098013695E1
:103B6000279536952795922F8295880F80763FE18D
:103B7000380F809302012093050130930301909345
:103B8000060124E630E047E050E060E071E088E7BD
:103B90000E94F32F892B09F0E5CEA80125E0440F00
:103BA000551F2A95E1F780917F0480FD22C044597A
:103BB0005D4F04E610E020E230E060E488E70E9418
:103BC0001A30892B09F0CECEE094F09480916802EF
:103BD00090916902E822F922F0926902E09268026B
:103BE000C1CE880F880F880F37E0380F20E093E0B0
:103BF000C0CFE0E4F2E080E2DF011D928A95E9F7B0
:103C0000EDE8F1E0FE83ED8309E811E081E9A82EFB
:103C100081E0B82E97E0392E44244394AD81BE81D3
:103C20008D91BE83AD83F80121918F01240F352F33
:103C3000311D24593D4FE82FF0E0E05CFD4F80E05E
:103C400090E0632C681A742C082E01C0770C0A943B
:103C5000EAF76901812CD6019D906D019720662DB0
:103C60006819677070E0B92D062E01C0BB0F0A9469
:103C7000EAF75B2E7195619571096770772701C02E
:103C800096946A95EAF759286081562A508283945F
:103C900068E08612E0CF019631968830910589F66A
:103CA0008D819E81A816B90609F0B8CF04E610E010
:103CB00020E230E040E452E080CF0F931F93CF9397
:103CC000DF93C62FD42F122F8823A9F0609393057A
:103CD0000E94C0169093190280931802C77081E069
:103CE00001C0880FCA95EAF70E94BE12DF91CF91FA
:103CF0001F910F91089580919305681336C08091AC
:103D00001802909119020E94D81B8F3A910568F50C
:103D1000CD130EC060E070E0812F0E946A18D7704A
:103D200081E001C0880FDA95EAF70E94C812DECF61
:103D3000C77001E0802F01C0880FCA95EAF70E9482
:103D4000C81280E28D0F883050F48D2F877001C02B
:103D5000000F8A95EAF7802F0E94BE12DBCF60E049
:103D600070E0812F0E946A18C1CFC77081E001C046
:103D7000880FCA95EAF7D9CFA0E0B0E0E2ECFEE107
:103D80000C9426327C01FC018481882309F445C10E
:103D900061E0C7010E94760DEC01F701858188235F
:103DA00019F180918F05909190050097E9F0C8175F
:103DB000D907D1F0992774E0880F991F7A95E1F718
:103DC000FC01EC58FE4F20812460208381599E4FD6
:103DD000FC01D183C0830E94EC1210929D0561E02A
:103DE000C7010E94760DEC01F7018581882309F453
:103DF00097C49E013A9521153F4430F59E01332723
:103E0000A901445051094432510508F052C0E091D3
:103E10008B05F0E0EE0FFF1FE75AFA4F208131814A
:103E20002F3F9FE7390709F4DCC42F5F3F4F3183F1
:103E30002083CD32D10508F0D4C4CA32D10509F4AB
:103E4000D2C081111EC062C09E01CF3FD10511F0CA
:103E500008F0DCC4245031092432310508F041C097
:103E6000E0918B05F0E0EE0FFF1FE75AFA4F8081DB
:103E700091818F3F2FE7920709F42BC1019691831F
:103E8000808310929305C6318CE7D80709F023C1CF
:103E9000809195058A7A91E0811101C090E090931C
:103EA00094058111E6C189E20E94100F0E946C12F4
:103EB000A4C02B5231092E30310508F0BACFE09161
:103EC0008B05F0E0EE0FFF1FE75AFA4F208131819A
:103ED0002F3F9FE7390759F02F5F3F4F31832083F2
:103EE00006C09E012B5231092E30310540F3CC32F1
:103EF000D10509F09ECF91E090938C0510926E0150
:103F000003C091E090938E058111F3C0F701858184
:103F100000811181882309F4F2C1C8010E94420D79
:103F2000C82F682FC8010E942F0AB8018C2F0E9449
:103F3000180B0E94290CD82FC92FF701D580C680F5
:103F4000C2949FE0C92280919A0587708823F9F076
:103F50000D2DDD20E9F08C2F807F803461F080E230
:103F60008D0F8830A0F08C2F807E803221F4D230EB
:103F700070F0CC2061F080919C0582FF08C082E047
:103F80000E94CE0A80919A05877001E0811100E0BD
:103F9000EC2FE295EF70C03C08F017C2F0E0E55955
:103FA000FC4C0C94B43291E090938D0590938E0567
:103FB00081110EC0C6313CE7D30709F07DC009C4AA
:103FC00091E090938D0590938E05882309F49ECF00
:103FD00010929305CE019057839708F459C053CFA0
:103FE00010928C0593CF90918D05992371F388E2FF
:103FF0000E94C81788E20E94371880919A0587703E
:10400000882359F0F7018581882339F080919C0538
:1040100082FF03C082E00E94CE0ACDB7DEB7E8E09F
:104020000C94423290E080E02FC4FE01E851FC473E
:10403000E730F10508F0BCCFE958FC4C0C94B432E1
:1040400026E241EE61EE0E945D1ED7CF27E245EEEB
:1040500065EEF9CF26E241EE60EEF5CF27E245EEC0
:1040600064EEF1CF26E241EE62EEEDCF27E245EEBF
:1040700066EEE9CF28E241E0EBCFF70185818823A6
:1040800009F40AC410929305CE019057839718F54E
:1040900084E090E00E94033390939C0580939B05FD
:1040A000FE01E150F047E232F10530F5E258FC4CF8
:1040B0000C94B4328111E5CEC737ECE7DE0709F482
:1040C000F4C382E0C837DC4709F020CF0E941D0A04
:1040D0000AC010929305C7379CE7D90709F0CDC0F5
:1040E00081E00E940D0A43E062E081E00E94980AAC
:1040F00084CF109293050ACF80919B0581608093B5
:104100009B0560919B0570919C0584E090E00E9466
:1041100037330E94E01871CF80919C0588608093AE
:104120009C05EFCF80919B058260E9CF80919B0534
:104130008460E5CF80919B058860E1CF80919C05EC
:104140008160EDCF80919C058260E9CF80919B05D5
:104150008061D5CF80919B058062D1CF80919B05F6
:104160008064CDCF0E94E01880919B058068C7CF06
:1041700080919B058C60C3CF80919C058360CFCFDD
:1041800080919B058E7FBBCF80919C05877FC7CF99
:1041900080919B058D7FB3CF80919B058B7FAFCFA7
:1041A00080919B05877FABCF80919C058E7FB7CF99
:1041B00080919C058D7FB3CF80919B058F7E9FCF93
:1041C00080919B058F7D9BCF80919B058F7B97CFA7
:1041D0000E94E01880919B058F7791CF80919B057D
:1041E000837F8DCF80919C058C7F99CF80919B059B
:1041F00082FB992790F921E0922790FB82F990FBAE
:1042000083F97DCF80919C05982F909591708E7F3A
:10421000892B90FB81F983CF90919B05892F8F7B10
:1042200096FF80646CCF0E94E01890919B05892FC7
:1042300097FB87F9805863CF61E08EE090E00E94A1
:1042400019335FCF60E0F9CF90919B05892F8F7E66
:1042500094FF806154CF90919B05892F8E7F90FFB2
:1042600081604DCF90919C05892F877F93FF886057
:1042700056CF85E319CE85E3B1C282E0C8372CE77B
:10428000D20709F42ECFCA353CE7D307A1F1C8F411
:10429000C1309CE7D90769F1C330ECE7DE0719F1BB
:1042A000C115DC4709F032CE0E94E0188FEF94E38D
:1042B000ECE081509040E040E1F700C000000E9437
:1042C000EC0FCB352CE7D207C1F0CC35DC4709F039
:1042D0001DCE80919C0582FB882780F991E089277B
:1042E0000E94401213CE6FEF7FEF80E090E00E94BB
:1042F00037330E94111981E0F3CF80E0F1CFC8017C
:104300000E94650AC82F11CE1C2F1F70C03110F0FB
:104310001295107FDD20B9F0112369F080E28D0F36
:10432000883010F0D11109C080919505812B8093C0
:1043300095050E946C128D2F40C080919D05812BA8
:1043400080939D05F6CF8D2F0E9437181123E9F138
:1043500080E28D0F883010F0D11104C0812F0E94AF
:10436000100B06C0109580919D05812380939D05BB
:104370000E946C122AC01C2F1F70C07FC03211F027
:104380001295107FDD2349F0D13009F46BC0DD2098
:1043900009F477C0CC20C9F1CECF80919C0582FD75
:1043A00030C0DD2069F0112339F080919505812B13
:1043B000809395050E946C1280E00E94C81705C08A
:1043C00080E00E9437181111C9CF0023A9F0809115
:1043D0009A0580FD11C0F701158286958695869510
:1043E0000E940D0AC7010E94BC1E80919A05869505
:1043F000869586950E941D0A60E0C7010E94760D91
:104400000CCEDD2099F0C11004C0812F0E94BE1295
:10441000DCCFF1E0CF12D9CF80919605912F982370
:10442000191799F2812B80939605CFCFC110CDCF6C
:10443000812F0E94C81290919605812F892388238D
:1044400029F0812F80958923809396058091970587
:10445000912F9823992309F4B8CF1095182310931E
:104460009705B3CFDD2029F025E02C1508F4ADCF5A
:10447000CCCF34E03C1508F4A8CF812F0E94C8129D
:10448000A4CFCC20D1F3D93349F48FEF97EEE3E0FA
:1044900081509040E040E1F700C000008D2F0E9465
:1044A000371893CF8C2F869586958370882369F073
:1044B000813009F08ACF8D2F9C2F9370D11002C0CC
:1044C00080E090E00E94EA0E80CF8D2F9C2F9370A9
:1044D000D11002C080E090E00E94C40E76CF6D2D16
:1044E0008D2F0E94F41671CF8C2F8370811142C0E2
:1044F000D1102FC04D2F429546954770440F440F61
:104500002D2F2F7030E0042E02C0220F331F0A948B
:10451000E2F780E090E0D4FF09C08FE090E002C0B5
:10452000880F991F4A95E2F780959095C695C69594
:10453000C370C230B1F0C33089F0409198055091FA
:104540009905C13049F0822B932B842395230E9437
:10455000030A0E94B00E39CF242B352B822B932BCC
:10456000F6CF822B932B20919805309199058227C5
:104570009327EDCFDD2091F1C0FFEBCF4D2F42957A
:1045800046954770440F440F2D2F2F7030E0042EB6
:1045900002C0220F331F0A94E2F780E090E0D4FFBC
:1045A00009C08FE090E002C0880F991F4A95E2F79A
:1045B00080959095C695C695C370C230C1F0C33042
:1045C00099F04091DF055091E005C13059F0822B00
:1045D000932B842395230E94080ABBCF823008F4D2
:1045E000B8CFCCCF242B352B822B932BF4CF822B1F
:1045F000932B2091DF053091E00582279327EBCFA5
:10460000CF70DD2039F08C2F0E940D0A8D2F0E9473
:10461000BE129FCF8D2F0E94C8128C2F0E941D0AA0
:1046200098CFD23FA1F178F4D03FC1F0D13F09F447
:1046300047C0DD2009F462C0CC2009F45CC08D2F96
:104640000E94C81786CFD33F49F1D43FA9F1D110BA
:10465000F3CFC11061C08C2F8F71E0CFDD20A1F0AE
:10466000F4E0FC1508F475CFCF7181E090E09C0177
:1046700002C0220F331FCA95E2F78091DF059091A7
:10468000E00582279327A7CF35E0C316EBCF8C2F09
:104690008F71D110C3CF0E940D0A5BCF80E090E0F4
:1046A000DD2009F498CFCF7181E090E002C0880F3F
:1046B000991FCA95E2F78FCF80919C0582FD06C0B5
:1046C0008C2F8F71DD2009F4A9CFE5CFDD2041F0DB
:1046D000CF718C2F0E940D0A8C2F0E94C81039CFE9
:1046E00081E00E94CE0A81E08C1508F032CF82E092
:1046F0000E94CE0A2ECF8C2F8F71CDCFCC2009F403
:10470000AACFD93349F49FEFE7EEF3E09150E040B0
:10471000F040E1F700C000008D2F0E94371819CF3C
:10472000CC32D10509F45CCC40F0C43ED10551F443
:1047300010928D0510928E05E9CBCA32D10509F48D
:10474000E5CB38CCC53ED10538F4C03ED10581F368
:10475000C23ED10579F3DACBC63ED10559F39E01AD
:1047600037552F3F310511F008F05FCCFE01FF27D0
:1047700084E0EE0FFF1F8A95E1F78F0101591E4F6C
:10478000EC58FE4F80818E7F8083F80144855585EB
:1047900066857785C8010E94AB0EF801858181FF8F
:1047A0006CCCC8010E94CF1220918F0530919005EA
:1047B000F7018581C217D30709F07CCC10929005D0
:1047C00010928F0581115ECCC631FCE7DF0709F03E
:1047D00078CC8091940581114ECD89E20E94440FDE
:1047E00065CBC43ED10509F4EBCB58F4C03ED105EE
:1047F00009F4D9CBC23ED10509F483CB811141CB59
:1048000060CCC63ED10509F47CCB9E0137552F3FC5
:10481000310511F008F009CC8E011127F80124E0D0
:10482000EE0FFF1F2A95E1F79F0121593E4F6901C5
:10483000EC58FE4F8081816080830E94C016909367
:1048400092058093910534E0000F111F3A95E1F72E
:1048500001591E4FF80182818F5F828380919D05EF
:1048600090919505892B8383809196058483468159
:10487000578166857785C6010E94AB0EF801858158
:1048800081FDD0CB9C2F8D2F90938F058093900529
:10489000F70185818111F5CAC631FCE7DF0709F40C
:1048A00098CFC737DC4709F031CB81E00FCC80913E
:1048B000DE05803178F48091DD05882359F0E091A0
:1048C0009F0520919E053091D9054091D80557E06C
:1048D0002E1301C008956E2F70E05E9FF001112429
:1048E000DF01A056BA4F14968C911497882361F17A
:1048F00011968C911197831327C08C91841324C037
:1049000015968C91159781111FC012968D919C91CF
:10491000A091DA05B091DB058A1B9B0B8F3A9105BC
:1049200098F48091DE058F7080618093DE05EA55F2
:10493000FA4F80818F708061808388ED95E00E94BE
:10494000BC1E0E94C40A0895FB013196E770C0CFD7
:10495000ADE0B0E0EEEAF4E20C9421328C0186E0A6
:10496000F801DE01189601900D928A95E1F7F801A1
:10497000E080F580A280B380C48088ED882E85E039
:10498000982E7090DC05711020C0CC20D9F0FF204B
:1049900009F419C1C8010E94A50D882309F413C1A7
:1049A00087E0F801D40101900D928A95E1F7F1E0DA
:1049B000CF1206C08091D8059091D9050E94960D1E
:1049C0000E945724FF24F39451C0D090DD058091BC
:1049D000DA059091DB059501281B390BDD2009F4E0
:1049E000BAC02F3A310508F090C0CC2059F390910D
:1049F000D905C1808091DE05803108F058C0C91208
:104A000014C09091D8059E1110C0F1104AC08F704B
:104A100080618093DE0588ED95E00E94BC1E809148
:104A2000DE05F8018683F12C21C0F1103AC040E088
:104A30006C2D8E2D0E947D1140E06C2D8E2D0E94DC
:104A40007D11F82E8111EFCF888599850E94960DF2
:104A5000292F22952F70903470F49F702230A0F08F
:104A60009923B1F0F8019681903190F48F2D2D9615
:104A7000EDE00C943D322A5F2F70223068F0C801BF
:104A80000E94BC1EFD2CF2CF992311F0882371F3F4
:104A9000805E883058F3F3CF803F40F3815F8230EF
:104AA000F9CF8091DE0581608093DE05BCCFC9120D
:104AB00007C09091D8059E1103C0FF2009F46CC077
:104AC000C8010E94A50D882309F47DC0FF2009F4C8
:104AD0007AC08091DE05803278F02091D80530913F
:104AE000D9053A832983BC82AB827D821E828F8363
:104AF000CE0101960E94BC1E87E0F801A8EDB5E04A
:104B000001900D928A95E1F75BCF8091DE058031AF
:104B100050F488ED95E00E94BC1E87E0F4011192EC
:104B20008A95E9F780CFCC2009F44CCF2091D905A4
:104B300091812913C5CF9091D8059E11C1CFF11055
:104B4000BFCF8683C8010E94BC1E87E0F40111928A
:104B50008A95E9F737CF2F3A3105F8F6CC2009F4DA
:104B600031CFFF2081F19091D9058181981321C027
:104B70008091D8058E111DC08091DE0580FD10C08A
:104B8000803170F08683807F803F39F08681982F56
:104B9000907F905F8F70892B8683C8010E94BC1E16
:104BA00087E0F801A8EDB5E001900D928A95E1F754
:104BB00009CFC8010E94A50D81119ECF8091DE050D
:104BC00081608093DE05C8010E94BC1EFBCEABE174
:104BD000B0E0EDEEF5E20C942B324E8B5F8B688FDC
:104BE000798F8A8F9B8F911110929D051D8A86E087
:104BF000FE017696DE011F9601900D928A95E1F7EF
:104C00008B89882329F061E0CE010F960E94760DF2
:104C100087E0FE013F96DE01189601900D928A957D
:104C2000E1F7CE0108960E94A82481112BC087E0ED
:104C3000FE013896DE01119601900D928A95E1F7FA
:104C400020919E0540919F058C858823D9F030E006
:104C5000C90101968770992750E084179507E9F0FC
:104C600097E0929FD001939FB00D1124A056BA4FA8
:104C7000FE01319601900D929A95E1F780939E0581
:104C80000E94C40A17E080919F0590919E058913A8
:104C900012C06B96E3E00C9447320E94E018109229
:104CA0009E0510929F0587E0E8EDF5E0DF011D927B
:104CB0008A95E9F7E7CF189FC001112480569A4FD3
:104CC0000E94A824882329F380919F0590E00196F3
:104CD0008770992780939F05D6CFA6E0B0E0E3E7E1
:104CE000F6E20C942A320E94C0168C0180910005D5
:104CF000909101058017910779F019821A820E941C
:104D0000C016BC0149815A8180E090E00E94E725ED
:104D100010930105009300052696E4E00C944632BA
:104D2000A3E1B0E0E6E9F6E20C9421321A8219829E
:104D3000FE01339688E0DF011D928A95E9F781E94B
:104D4000A82E81E0B82E8E010F5F1F4F4801EE2480
:104D5000E394F12C2CE9C22E21E0D22EF5018191B1
:104D60005F018F3F09F441C0F894E82FE295EF709E
:104D7000F0E021A18F70A70102C0440F551F8A9552
:104D8000E2F7CA01922F982B91A392A180958923D3
:104D900082A3789400C0E6E9F1E031E0712C219122
:104DA0002F3F09F4C0C0A22FA295AF70A05EB0E063
:104DB0008C9190E02F7002C0959587952A95E2F727
:104DC00081708111B0C0832F782A330FCE16DF0691
:104DD00031F7F501319780818F3F11F00E94CD0DA1
:104DE00050EA5A95F1F7D8017C920F5F1F4FB6E950
:104DF000AB16B1E0BB0609F0B1CF4AE050E0B40118
:104E00008CE694E00E94E5320091770410E00D57A3
:104E10001B4F892B09F489C08AE0F401ACE6B4E0A9
:104E200001900D928A95E1F781E0809317020E942C
:104E3000C01690931602809315028091FA0488237D
:104E400009F4CBC01C861B86FE013D9683E0DF0182
:104E50001D928A95E9F780911A028A3008F087C07E
:104E60007E01BBE0EB0EF11C45EB53E1B701C8013D
:104E70000E9406126701882309F49DC048E354E1AB
:104E8000B701C8010E940612882309F494C04CE8B7
:104E900058E1B701C8010E940612882309F48BC0AB
:104EA00049EA54E1B701C8010E940612882309F4B7
:104EB00082C046E554E1B701C8010E94061288236A
:104EC00009F479C04BE154E1B701C8010E94061210
:104ED000882309F470C04AEE54E1B701C8010E946A
:104EE0000612882309F467C049E854E1B701C801F4
:104EF0000E940612882309F45EC010921A02809163
:104F0000760490E045E050E0B6018D579B4F0E943B
:104F1000E53221E020931402892B09F03FC063960B
:104F2000EDE00C943D3280E04FCF80911702882352
:104F300009F483CF80911502909116020E94D81B2C
:104F4000059708F47ACF45E050E06CE674E0C801BC
:104F50000E94E532892B41F085E0ECE6F4E0D801CF
:104F600001900D928A95E1F71092170266CF809119
:104F70001202909113020E94D81B843F914008F0C6
:104F80006FCF80911402882351F2FE013B9685E099
:104F9000DF011D928A95E9F710921402A091760420
:104FA000B0E0AD57BB4F85E0FE013B9601900D92FE
:104FB0008A95E1F7B4CF80911A028F3F39F40E94AD
:104FC000C0169093130280931202DBCF8F5F809301
:104FD0001A028A3008F493CFF2CFE0907604F12CD5
:104FE000F701ED57FB4F7F0185E0F801A1EEB4E03A
:104FF00001900D928A95E1F765E070E081EE94E012
:105000000E943F0E8093E00485E0E6EEF4E0D701D5
:1050100001900D928A95E1F74091A60450E06091CD
:10502000A50470E064537B4FCE010B960E94F232D0
:105030008B858093EC0461E070E0CE010B960E94BA
:105040003F0E8093EB04C090ED04D090EE04E0900E
:10505000EF04F090F00480910E0290910F02A09165
:105060001002B0911102C816D906EA06FB06B1F08B
:10507000C0920E02D0920F02E0921002F092110242
:105080000E94710FC61AD70AE80AF90AC092FC04F6
:10509000D092FD04E092FE04F092FF048091F104AE
:1050A0009091F2049093E0058093DF058091F304E2
:1050B0009091F40490939905809398058091F5045C
:1050C000809338029091F7048091F8042091F604BF
:1050D0002093950590939D0590919C0592FF05C0A6
:1050E000909196058913809396058091F904882301
:1050F00019F00E947D1513CF0E946B1510CFCDB70C
:10510000DEB765970FB6F894DEBF0FBECDBF85B78B
:10511000806885BF85B7806885BF84B7877F84BF77
:105120000FB6F894A8958091600088618093600024
:10513000109260000FBE80E890E00FB6F894809364
:105140006100909361000FBE8BEC9DE09093E501B0
:105150008093E4010E94A9100E9422118091E20034
:1051600084608093E200789480918204882399F08F
:105170008091E9001091EC001795112717958F7019
:10518000182B1092E9008091E80083FD0E942719F6
:105190001F701093E90082E084BD93E095BD9AEF03
:1051A00097BD80936E001092FC041092FD04109243
:1051B000FE041092FF0488EC90E02091E300122F8F
:1051C000111F1127111F27FD0DC0AFE3BCE9119777
:1051D000F1F700C000000197009779F70E94A9102D
:1051E000109282041093FA0425982D98EFE8F1E0CC
:1051F0003197F1F700C0000083B185FB882780F963
:105200008093FB04809307018091FA0481110E942E
:10521000A5308091070191E089278093A504F92F9B
:10522000F81BF093CE04809107019093A60480911F
:1052300007019093CB0480910701811106C084EF90
:105240008093140185EF8093130180911401E82F5E
:10525000E295EF70F0E041A18F7021E030E0B901FC
:1052600002C0660F771F8A95E2F7CB01962F9095C3
:10527000942391A392A1892B82A380911301E82FFB
:10528000E295EF70F0E041A18F70D90102C0AA0F42
:10529000BB1F8A95E2F7CD019A2F9095942391A395
:1052A00092A1892B82A3EFE8F1E03197F1F700C0DA
:1052B00000001091A60464E171E043E151E0F7EAD7
:1052C000EF2EF4E0FF2EFB018E2F861B811708F4D2
:1052D000D9C0809107018091070190E0811101C040
:1052E00095E09093770485E0891B8093760401E92B
:1052F00011E0E6E9EE2EE1E0FE2EF80181918F014A
:105300008F3F11F00E94CD0DE016F106B1F706E9CE
:1053100011E07CE9E72E71E0F72ED8018D918D0127
:105320008F3F11F00E94CD0DE016F106B1F78AE033
:10533000E3E8F4E0DF01282F1D922A95E9F7ECE677
:10534000F4E0DF011D928A95E9F780E090E00E9489
:105350000333863E9E4F09F466C066EE7EEF80E022
:1053600090E00E94373360E082E090E00E941933C1
:1053700081E090E0909399058093980561E083E047
:1053800090E00E94193360E074E184E090E00E94B4
:10539000373360E086E090E00E9419336FEF87E0DA
:1053A00090E00E94193340E050E0BA0188E090E0BC
:1053B0000E942B3360E084E290E00E94193360E0A9
:1053C00087E190E00E94193360E08CE090E00E9459
:1053D000193360E08DE090E00E94193319821A823F
:1053E0001B821C821D821E821F82188648E050E0AC
:1053F00068E170E0CE0101960E94093340E050E080
:10540000BA0180E290E00E942B3340E050E0BA0104
:105410008FE090E00E942B3340E050E0BA0183E13E
:1054200090E00E942B3382E090E00E94FB32809358
:105430008D0484E090E00E94033390939C05809358
:105440009B050E949026EFEFF6E721E0E150F04047
:105450002040E1F700C000000E9490268091FB04EC
:10546000E0E0811101C0E5E0F0E0ED57FB4F808105
:1054700080FF30C06FEF7FEF80E090E00E94373315
:105480000E94EC0F0191802F82958F70805E90E0DA
:10549000DC012C91DA013D91AD01832F82958F7053
:1054A000805E90E0DC018C9190E03F7002C09595A9
:1054B00087953A95E2F78170880F30E00F7002C04F
:1054C000359527950A95E2F72170822BD7018D93A8
:1054D0007D01FACE83E090E00E94FB3290E00E94D2
:1054E000030A83E080937F0480E280937E040E941D
:1054F0004E2F6BE070E08CE092E10E943E15882315
:1055000089F180917F0465E070E081FDAFC087E0A4
:1055100092E10E943E15882329F16DE070E085EF4D
:1055200091E10E943E158823E9F00E94710F6D877A
:105530007E878F87988BDC01CB0180589645AC4FD6
:10554000BF4F80937A0490937B04A0937C04B09324
:105550007D040E94571281E0809379048093B20405
:105560001092780480919B05806880939B056091E0
:105570009B0570919C0584E090E00E9437338091F8
:10558000FA04811102C00E94A83088E091E0909353
:10559000270580932605CE01019668E1262E312C41
:1055A0008D87998B80918204853049F480918204A3
:1055B000853009F45EC00E94E0180E94B00E0E947F
:1055C00090260EE814E053E8E52E54E0F52ED701BE
:1055D000F80191918D9168E974E06E177F0709F4E5
:1055E0009AC09817B1F38090FA04D12CD701CD90CE
:1055F0007D01F80191908F019C1441F19C24B12C04
:10560000AA24A3948A2D89218823C1F08820B1F08F
:10561000B982DA820E94C0169C838B83F1E0FD83FD
:1056200091E08A2D8C21811101C090E09E834981F7
:105630005A816B817C818D810E94E725B394AA0CED
:1056400026E0B212DFCFF8013197C082D3943AE05E
:10565000D312CCCF0E948E0F609302057093030586
:10566000809304059093050501E05AC082E092E121
:1056700050CF80918204843021F10E946B151092EA
:10568000800430E40FB6F894A895209260000FBE15
:105690003093600083B7817F846083BF83B781606C
:1056A00083BF7894889583B78E7F83BF0FB6F894B5
:1056B000A8958091600088618093600010926000DE
:1056C0000FBE80918104882309F470CF0E94902638
:1056D000E3E8F4E08DE894E02191211104C08E17F5
:1056E0009F07D1F763CF80E189BD82E189BD09B40D
:1056F00000FEFDCF8091D8008F7D8093D8008091EF
:10570000E00082608093E0008091E00081FDFCCFAA
:105710000E94E0184BCF981366CF0E946D2600E0E0
:105720008091FA04882309F4E7C0E0908F05F09097
:105730009005E114F104D1F08091910590919205CA
:105740000E94D81B803B910588F0C701992744E04F
:10575000880F991F4A95E1F7FC01EC58FE4F208114
:1057600022FD04C081599E4F0E94EC12C090590541
:10577000D0905A050D2C000CEE08FF081091120174
:10578000A12EB12CE9E5F5E081E090E03296A81673
:10579000B9060CF0B4C060919F047091A004809190
:1057A000A1049091A2040E94CC0F2B013C01960110
:1057B000A701F7FE04C020E030E040E050E0A0E6A2
:1057C000BAEE0E94BA3269877A878B879C8788EC09
:1057D0008A9D90018B9D300D1124032E000C440BEB
:1057E000550B240D351D461D571DA5E0B0E00E9448
:1057F000BA326A8B7B8B8C8B9D8B69857A858B8586
:105800009C852A893B894C895D890E9473324901B4
:105810005A01213F31054105510528F030EF832E13
:10582000912CA12CB12C89EC48165104610471040F
:105830000CF180918B0590E0019669E170E00E9487
:105840005F3280938B05880F991FFC01E75AFA4F4E
:1058500011821082183108F017E11F5F10931201B6
:105860000E94710F60939F047093A0048093A10421
:105870009093A20492E0C916D104E104F1041CF44F
:10588000812C912C540160919B0470919C04809117
:105890009D0490919E040E94CC0F6B017C0175E6E3
:1058A000C716D104E104F10484F00E94710F6093E3
:1058B0009B0470939C0480939D0490939E0480911C
:1058C0009A04809399048092980410919904A0916D
:1058D0009804A11BBB0BA70196010E94C5326987E2
:1058E0007A878B879C8724E630E040E050E00E9476
:1058F0009532120F10939A04D12CB12C82C04081A2
:105900005181052E000C660B770BC40ED51EE61ECA
:10591000F71E01963BCF8D2D90E0FC01EC5EFE4F13
:105920006081E62FE295EF70E05EF0E04081FC01DF
:10593000ED5EFE4F5081E52FE295EF70E05EF0E006
:10594000208130E05F7002C0359527955A95E2F7C7
:105950002170220F50E06F7002C0559547956A95EF
:10596000E2F74170242BDC01A955BB4FEC913E2F8F
:105970003370231709F444C0EE0FEE0FE22BEC93C3
:105980001091A5041D0DEF70F0E0E456FE4FDC0110
:10599000AD55BB4F7D0180819C91890F8C93C12CAB
:1059A000823074F0E12FF0E0E453FB4F80818F5F91
:1059B0008083C090FA04CC20A9F080E00E94821875
:1059C000F70180818F3F84F4E12FF0E0E453FB4F37
:1059D0008081815080838091FA04882319F081E0CE
:1059E0000E948218CC24C394D7018C91082E000CFD
:1059F000990B62E070E00E945F32F7018083BC285F
:105A0000D3948091A604D81608F485CFBB2039F032
:105A10000E94C10F0E94E71B0E947D1504C00E94D6
:105A2000E71B0111F9CF86E0E3E5F5E0AD85B98923
:105A300001900D928A95E1F7C090540500915505AB
:105A400010915605E0905705F090580510925505B5
:105A5000109256051092570510925805812F802BF1
:105A6000882379F08091AB049091AC040E94D81BFC
:105A70009C0180915105811150C02B30310508F0F7
:105A800052C08F2D8E29882379F08091A90490919E
:105A9000AA040E94D81B9C018091500581117BC0F3
:105AA0002B30310508F07DC080915405C81216C016
:105AB00080915505882311F0801310C090915605F0
:105AC000992311F019130AC020915805211106C01D
:105AD00020915705211102C0892B81110E94CC16FB
